:020000040800F2
:1000000060100020791F0008F1040008F3040008C4
:10001000F7040008FB040008FF04000800000000CB
:1000200000000000000000000000000003050008C0
:100030000505000800000000070500080905000884
:10004000931F0008931F0008931F0008931F0008C8
:10005000931F0008931F00082B0300085F0200088D
:10006000931F0008931F0008931F0008931F0008A8
:10007000931F0008931F0008931F0008931F000898
:10008000931F0008931F0008931F0008931F000888
:10009000931F0008931F0008931F0008931F000878
:1000A000931F0008931F0008931F0008931F000868
:1000B000931F0008931F0008931F0008931F000858
:1000C000931F0008931F0008931F0008931F000848
:1000D000931F0008EF1E0008931F0008931F0008DD
:1000E000931F0008931F0008931F000800F002F8F8
:1000F00000F065F80AA090E8000C82448344AAF15D
:100100000107DA4501D100F05AF8AFF2090EBAE85A
:100110000F0013F0010F18BFFB1A43F0010318473B
:1001200080390000A03900000A444FF0000C10F89C
:10013000013B13F0070408BF10F8014B1D1108BF65
:1001400010F8015B641E05D010F8016B641E01F805
:10015000016BF9D113F0080F1EBF10F8014BAD1C55
:100160000C1B09D16D1E58BF01F801CBFAD505E073
:1001700014F8016B01F8016B6D1EF9D59142D6D3CD
:10018000704700000023002400250026103A28BFF5
:1001900078C1FBD8520728BF30C148BF0B607047F9
:1001A000642902F0FB85782902F03486732902F075
:1001B000CA87002070471FB51FBD10B510BD03F0E2
:1001C0000FF81146FFF7F7FF00F008F803F02DF8DD
:1001D00003B4FFF7F2FF03BC01F02EFE1CB501F0E3
:1001E000C1FD4FF4E13001F036FE00F07FFA00F07F
:1001F00099FA4FF4A06001F0DFFE01F08CF801F0F5
:1002000009FD01F09EFB884810210123874ACDE9B2
:1002100000100021864801F0FEF81FE000F0F3FD19
:100220004FF47A7001F0DBFD4FF47A7001F0D7FDE6
:1002300001F087FB09220621002001F07FFC022249
:1002400006210F2001F07AFC0C2206211E2001F06D
:1002500075FC0D2206212D2001F070FCDEE77FB534
:100260000A2001F0BCFD73480068012855D1002523
:100270004103714802F01DF80120704908700A46D8
:100280006F480178C12001F0ABF96E4908706EA08B
:1002900002F014FD6B48007800283BD10220694928
:1002A000087069466648007800F0F6FB65490870FA
:1002B00008460078002829D167A002F0FFFC00243E
:1002C00005E01DF8041067A002F0F8FC641C102C77
:1002D000F7DB66A002F0F2FC65A002F0EFFC284616
:1002E00001F036F900F002FC9DF800209DF80100B5
:1002F00002EB00229DF8020002EB00429DF8030091
:1003000002EB00615DA002F0D9FC06E061A002F002
:10031000D5FC02E064A002F0D1FC4FF47A7001F049
:100320005EFD022002F0BFFC7FBD1FB50A2001F078
:1003300056FD4048001F006801286DD141033E482A
:1003400001F0B5FF01205D4908605DA002F0B6FC38
:1003500001205F4908709DF800109DF8010001EB35
:1003600000219DF8020001EB00419DF8030001EB24
:10037000006057490978884203DA56A002F09EFCD3
:100380004AE0534A2E480178C02001F029F92D494E
:1003900008700846007800283BD1022008706946A2
:1003A0002748007800F078FB264908700846007856
:1003B00000282AD128A002F081FC002405E01DF8C5
:1003C000041028A002F07AFC641C102CF7DB27A094
:1003D00002F074FC41A002F071FC9DF800209DF831
:1003E000010002EB00229DF8020002EB00429DF8A2
:1003F000030002EB006121A002F060FC2F480068BE
:1004000001F0A6F800F072FB06E022A002F056FC14
:1004100002E025A002F052FC4FF47A7001F0DFFCFC
:10042000012002F040FC1FBD9405002000000020C8
:100430000600002004012142001001400E000020AF
:100440006D00002068000020B0B4BCFC31D6B4D0F0
:10045000D041310D0A00000064617465335F303AA9
:100460000000000025303278000000000D0A000076
:10047000B3E4D6B5B3C9B9A6000000006E6F77200B
:10048000796F752068617665202564206D6F6E65D3
:10049000790D0A0050636452656164206661696C7D
:1004A00065640D0A0000000050636456616C756558
:1004B000206661696C65640D0A000000140000206C
:1004C000B0B4BCFC30D6B4D0D041300D0A0000002E
:1004D0000A000020CAA7B0DC0D0A00006368617240
:1004E000676520737563636573730D0A0000000010
:1004F000704700BFFEE700BFFEE700BFFEE700BF9A
:10050000FEE7704770477047704700000CB5002049
:10051000019000906C48006840F480306A4908609F
:1005200000BF6948006800F4003000900198401C4A
:100530000190009818B90198B0F5A06FF1D1624808
:10054000006800F4003010B10120009001E00020AC
:1005500000900098012843D15C48006840F01000EA
:100560005A4908600846006820F003000860084601
:10057000006840F0020008605348406852494860F3
:100580000846406848600846406840F4806048601B
:100590000846406820F47C1048600846406840F4F3
:1005A000E81048600846006840F08070086000BFAE
:1005B0004548006800F000700028F9D042484068C3
:1005C00020F00300404948600846406840F00200BF
:1005D000486000BF3C48406800F00C000828F9D192
:1005E0000CBD10B5FFF792FF10BD10B5364800687E
:1005F00040F001003449086008464068344908402A
:100600003149486008460068324908402E49086070
:100610000846006820F4802008600846406820F4FE
:10062000FE0048604FF41F008860FFF7DAFF4FF0CC
:1006300000602949086010BD10B50021002000228B
:10064000214B5B6803F00C0121B1042906D0082975
:1006500028D107E0214B224C236027E01F4B204C80
:10066000236023E0184B5B6803F47010164B5B6843
:1006700003F48032022303EB904022B9194B434329
:10068000174C23600DE0104B5B6803F4003323B17B
:10069000144B4343124C236003E0104B4343104C74
:1006A000236003E00D4B0E4C236000BF00BF064BE0
:1006B0005B68C3F303130C4CE15C094B1B68CB4034
:1006C000074C236010BD00000010024000200240D3
:1006D0000000FFF8FFFFF6FE08ED00E000127A00D0
:1006E0001800002000093D001C00002008B5012171
:1006F000502001F0EBFF4FF40050ADF80000102047
:100700008DF8030003208DF802006946044801F0CB
:1007100021FD4FF40051024801F0C9FD08BD000061
:10072000001001401FB50121042001F0CFFF02207D
:10073000ADF80C000120ADF80C0048208DF80F003A
:1007400003A91E4801F006FD0121002001F018FE5A
:1007500000208DF804000220009008208DF805008C
:1007600001208DF80600684602F026FA00210846AE
:1007700001F006FE01200090684602F01DFA0720F5
:100780008DF8080000208DF809008DF80A0001207E
:100790008DF80B0002A801F014FC06208DF808006B
:1007A00001208DF8090000208DF80A0001208DF845
:1007B0000B0002A801F005FC1FBD0000000801406D
:1007C00070B50446002524E004F0800028B14FF401
:1007D0000041FB4801F06BFD04E04FF40041F84894
:1007E00001F067FD142001F0D6FA4FF40051F448EF
:1007F00001F05FFD142001F0CEFA4FF40051F048F3
:1008000001F055FD142001F0C6FA6006040E681CC4
:10081000C5B2082DD8DB70BD70B504460D467E20EC
:1008200000EA44064FF48051E54801F042FD3046AD
:10083000FFF7C6FF2846FFF7C3FF4FF48051E0489B
:1008400001F035FD70BD70B500251FE06006040E97
:100850004FF40051DA4801F02CFD142001F09BFA0E
:100860004FF48041D64801F008FD012801D144F041
:100870000104142001F08FFA4FF40051D04801F028
:1008800016FD142001F087FA681CC5B2082DDDDBC7
:10089000204670BD70B504467E2000EA440040F05A
:1008A00080054FF48051C64801F003FD2846FFF74C
:1008B00087FFFFF7C8FF06464FF48051C04801F09C
:1008C000F6FC304670BD70B505460C462846FFF76D
:1008D000E1FF064646EA04012846FFF79DFF70BD8A
:1008E00070B505460C462846FFF7D4FF064626EAB3
:1008F00004012846FFF790FF70BD2DE9FE4F064624
:10090000884691469A46DDF830B0022002900020D9
:10091000019000900C2E06D00E2E09D112200190CD
:100920001020009005E0772001903020009000E03A
:1009300000BF00BF019840F080010220FFF76CFF6C
:1009400080210420FFF7CCFF00210120FFF764FF86
:1009500080210A20FFF7B7FF002505E018F80510F1
:100960000920FFF759FF6D1C4D45F7D33146012093
:10097000FFF752FF0C2E03D180210D20FFF7A3FFBC
:100980004FF47A7500BF0420FFF784FF04466D1E04
:1009900035B104F0010018B9009820400028F2D0C9
:1009A00080210D20FFF79CFF95B30620FFF772FF13
:1009B00000F01B0068BB002002900198204000F06E
:1009C000010008B1012002900C2E24D10A20FFF76B
:1009D00061FF04460C20FFF75DFF00F007072FB111
:1009E000601E07EBC000CBF8000002E0E000CBF88F
:1009F000000004B90124122C00DD1224002505E0BA
:100A00000920FFF747FF0AF805006D1CA542F7D340
:100A100001E00220029080210C20FFF754FF00210A
:100A20000120FFF7F9FE0298BDE8FE8F2DE9F041A5
:100A300007468846154604210520FFF751FF00218F
:100A40000120FFF7E9FE80210A20FFF73CFF002488
:100A500005E0395D0920FFF7DFFE601CC4B24445A4
:100A6000F7DB03210120FFF7D7FEFF2400BF05209D
:100A7000FFF710FF0646601EC4B21CB106F004006A
:100A80000028F4D02220FFF705FF28702120FFF76F
:100A900001FF6870BDE8F081F0B587B005460E46ED
:100AA00030208DF808008DF809500DF10A0202215E
:100AB00002A8FFF7BBFF01A802AB042202A9009025
:100AC0000C20FFF71AFF074667B90198902809D153
:100AD000002404E002A8005D3055601CC4B2102C54
:100AE000F8DB00E00227384607B0F0BD10B5354905
:100AF00035480078FFF7D0FF344908700846007881
:100B000028BB30480178407801EB00212D488078DF
:100B100001EB00412B48C07801EB0060C4B22CA06F
:100B200002F0CCF821462EA002F0C8F822462CA1F3
:100B30002C4802F0CFF808232BA20221002000F05D
:100B4000DAFF0823274A0221322000F0D4FF10BD2B
:100B50002DE9F04387B006460F46904699468DF83A
:100B600008608DF80970002406E018F8041002AA45
:100B7000A01C1154601CC4B2062CF6DB002407E054
:100B800019F8041002AA04F108001154601CC4B240
:100B9000062CF5DB01A802AB0C2202A900900E2066
:100BA000FFF7ABFE05462DB90820FFF773FE00F0F6
:100BB000080000B90225284607B0BDE8F083000010
:100BC000000C0140F40500206D00002068000020AA
:100BD0006F6C6564CFD4CABEA3BA0D0A00000000D2
:100BE00025640000330700206D6F6E65793A0000C0
:100BF00070B588B0054693208DF80C0070208DF8F4
:100C00000D0000208DF8120000240BE0295D03AADE
:100C1000A01C11549DF81200295D48408DF8120067
:100C2000601CC4B2042CF1DB0DF11302072103A8F0
:100C3000FFF7FCFE08210846FFF752FE02A803ABAF
:100C4000092203A900900C20FFF757FE06463EB983
:100C50000298182804D10026FDA002F02FF803E026
:100C60000226FEA002F02AF8304608B070BD3EB55C
:100C70000546002446E0285DC11700EB11710911FB
:100C80000DF814101DF81400092806DD1DF81400D5
:100C90003730C0B20DF8140005E01DF814003030F4
:100CA000C0B20DF81400285DC11700EB11710911D5
:100CB000A0EB0111C9B2012202EB44020DF80210AF
:100CC000012000EB44001DF8000009280CDD012084
:100CD00000EB44001DF800003730C0B2012101EBE9
:100CE00044010DF801000BE0012000EB44001DF869
:100CF00000003030C0B2012101EB44010DF80100C9
:100D0000601CC4B2042CB6DB6A46D7A1D74801F0F8
:100D1000E1FF0823D6A20021084600F0ECFE0823DC
:100D2000D24A0021192000F0E6FE00208DF80800CC
:100D30006946D0A001F0C2FF6946D4A001F0BEFF11
:100D40003EBDF0B587B00546002708210846FFF7ED
:100D5000C7FD00210D20FFF75FFD80210E20FFF76A
:100D6000BFFD93208DF8080020208DF8090001A810
:100D700002AB022202A900900C20FFF7BEFD06463E
:100D800086B9002407E002A8005D285502A8005D8E
:100D90004740601CC4B2042CF5DB02A8005DB842D9
:100DA00000D0022680210E20FFF78DFD304607B0CF
:100DB000F0BD70B588B005460C4608210846FFF71F
:100DC0008FFD07210D20FFF727FD03211420FFF7DA
:100DD0007AFD8DF80C5002A803AB012203A9009004
:100DE0000C20FFF78AFD06464EB90298102806D15E
:100DF0009DF80C0020709DF80D00607000E0022648
:100E0000304608B070BD10B50024A3495220FFF74A
:100E1000D0FFA24908700846007868B9022008701F
:100E20009F48FFF78EFF9D4908709D48FFF71FFF01
:100E30009CA001F043FF02E09DA001F03FFF974816
:100E4000007800287ED10220944908709EA001F00D
:100E500035FF93480078A0490978884273D19048BB
:100E600040789D4949788842F8D18D4880789A49E0
:100E700089788842F2D18A48C0789749C9788842EF
:100E8000ECD101209549087095A001F017FF844826
:100E9000FFF7AEFE8149087008460078002827D188
:100EA000022008707E4B924A924801786020FFF73A
:100EB0004FFE7A4908700846007818B98EA001F0F4
:100EC000FDFE02E093A001F0F9FE754B984A8948B7
:100ED00001786120FFF73CFE7049087008460078F1
:100EE00018B994A001F0EAFE02E099A001F0E6FE34
:100EF0006A48007800283DD10220684908709B4963
:100F00009B480078FFF7C8FD6449087008460078E0
:100F100000282CD197A001F0D1FE002406E09348D0
:100F2000015D97A001F0CAFE601CC4B2102CF6DB74
:100F300049A001F0C3FE8D480278407802EB002200
:100F40008A4801E033E02EE0807802EB00428748D7
:100F5000C07802EB00618CA001F0B0FEFFF7C6FD87
:100F60008FA001F0ABFE96A001F0A8FE02E09BA0CE
:100F700001F0A4FE4FF47A7000F031FF4FF47A7064
:100F800000F02DFF4FF47A7000F029FF4FF47A70D3
:100F900000F025FF4FF47A7000F021FF4FF47A70D3
:100FA00000F01DFF06E092A001F088FE02E098A08C
:100FB00001F084FE10BD10B51420FFF76BFC044651
:100FC00004F0030018B903211420FFF77CFC10BDC6
:100FD00010B50446412C24D108210846FFF780FCB7
:100FE0003D211120FFF718FC86211720FFF714FC84
:100FF0007F212620FFF710FC1E212D20FFF70CFC7F
:1010000000212C20FFF708FC8D212A20FFF704FC8B
:101010003E212B20FFF700FC022000F0BCFEFFF772
:10102000CAFF10BD10B54FF480717D4801F03FF943
:10103000012000F0B0FE4FF48071794801F039F9D9
:10104000012000F0A8FE4FF480717548EAE000002E
:10105000D1A1BFA8B3C9B9A60D0A0000D1A1BFA8EC
:10106000CAA7B0DC0D0A000025730000340600207A
:1010700049443A00796F7572206361726420696433
:101080002069732025730D0A0000000049443E3E8C
:101090003E25730D0A0000002C000020680000208F
:1010A0002E000020D1B0BFA8B3C9B9A60D0A000018
:1010B000506C65617365207377697065207468652D
:1010C00020636172640D0A00B4F2D3A16964B3C9EC
:1010D000B9A60D0A000000003800002032000020F0
:1010E0000D0A77656C636F6D65200D0A00000000C6
:1010F0003C0000206E00002050636441757468530A
:101100007461746528412920737563636573730D79
:101110000A0000005063644175746853746174651B
:10112000284129206661696C65640D0A0000000091
:1011300042000020506364417574685374617465A3
:1011400028422920737563636573730D0A000000DC
:101150005063644175746853746174652842292032
:101160006661696C65640D0A00000000F4050020EA
:101170006D00002064617465335F303A0000000048
:1011800025303278000000006E6F7720796F75206F
:1011900068617665202564206D6F6E65790D0A00A3
:1011A000507265737320746865204B455930207404
:1011B0006F2072656368617267650D0A0000000048
:1011C000507265737320746865204B4559312074E3
:1011D0006F206368617267650D0A00005063645296
:1011E0006561642829206661696C65640D0A0000E8
:1011F0000D0A54686973206361726420646F6573BB
:10120000206E6F74206D617463680D0A0000000029
:10121000CAB6B1F0BFA8BAC5CAA7B0DC00000000CA
:101220000008014001F043F8012000F0B4FD0F2157
:101230000120FFF7F1FA00BF0120FFF72BFB00F0C0
:1012400010000028F8D1012000F0A5FD3D2111205B
:10125000FFF7E2FA1E212D20FFF7DEFA00212C20F5
:10126000FFF7DAFA8D212A20FFF7D6FA3E212B204C
:10127000FFF7D2FA40211520FFF7CEFA10BD08B5CE
:1012800001210C2001F022FA4FF48050ADF800004B
:1012900010208DF8030003208DF802006946FE48F7
:1012A00000F058FF4FF40050ADF8000010208DF80A
:1012B000030003208DF802006946F74800F04AFF5A
:1012C0004FF48040ADF8000004208DF803000320A7
:1012D0008DF802006946F04800F03CFF4FF40040F2
:1012E000ADF8000010208DF8030003208DF80200F7
:1012F0006946E94800F02EFF4FF48070ADF8000019
:1013000010208DF8030003208DF802006946E348A1
:1013100000F020FF08BD10B5FFF7B1FF4FF480715A
:10132000DE4800F0C4FF4FF48051DB4800F0BFFFFF
:10133000FFF778FE4120FFF74BFE10BD10B50321EB
:101340001420FFF7CDFA10BDF0B587B006460F4662
:10135000A0208DF808008DF809600DF10A02022125
:1013600002A8FFF763FB01A802AB042202A90090C8
:101370000C20FFF7C2FA054645B90198042805D1AB
:101380009DF8080000F00F000A2800D0022535BBA8
:101390001022394602A801F005FE002404E0385D61
:1013A00002A90855601CC4B2102CF8DB06AA102153
:1013B00002A8FFF73BFB01A802AB122202A9009092
:1013C0000C20FFF79AFA054645B90198042805D183
:1013D0009DF8080000F00F000A2800D002252846DA
:1013E00007B0F0BD00B587B050208DF80800002090
:1013F0008DF809000DF10A02022102A8FFF716FB81
:1014000001A802AB042202A900900C20FFF775FA94
:10141000002007B000BD2DE9F84F06460F46934661
:101420009846DDE90A9A002500200090694652207E
:10143000FFF7BFFC04461CB96846FFF718FC01E043
:10144000BDE8F88F6846FFF77CFC044604B1F7E777
:101450003046FFF7CDFB04461CB191A001F02EFCF5
:10146000EEE73FB933465A4649466020FFF770FB26
:10147000044606E033465A4649466120FFF768FBBA
:1014800004461CB18BA001F019FCD9E7B8F1000F9C
:101490001ED051464846FFF7FFFA04469CB98AA081
:1014A00001F00CFC002507E01AF80510AFF230300F
:1014B00001F004FC681CC5B2102DF5DBAFF26840EA
:1014C00001F0FCFB12E0AFF2EC2001F0F7FBB7E714
:1014D00051464846FFF738FF04461CB97CA001F08E
:1014E000EDFB03E080A001F0E9FBA9E7FFF77AFF3D
:1014F00004461CB981A001F0E1FB03E085A001F0E6
:10150000DDFB9DE700BF9BE7F8B504460D46174697
:101510001E460020009069465220FFF74AFC6846AC
:10152000FFF70FFC2046FFF763FB23462A461021F6
:101530006020FFF70DFB27B131461020FFF7ACFA12
:1015400003E031461020FFF7FFFEFFF74BFFF8BD29
:1015500010B504469CB90E220321002000F0EEFADB
:101560000F220321104600F0E9FA102203211E2069
:1015700000F0E4FA112203212D2000F0DFFA012C03
:1015800013D112220321002000F0D8FA13220321E4
:101590000F2000F0D3FA102203211E2000F0CEFA13
:1015A000112203212D2000F0C9FA10BD38B516E034
:1015B00069465220FFF7FDFB044664B1694652209C
:1015C000FFF7F7FB044634B169465220FFF7F1FB01
:1015D000044604B138BD4FF47A7000F000FCE7E730
:1015E0002DE9F04188B007460E4690468DF8087008
:1015F0008DF809600DF10A02022102A8FFF716FA20
:1016000007A802AB042202A900900C20FFF775F98D
:10161000044644B90798042805D19DF8080000F055
:101620000F000A2800D00224E4B9002505E018F8CC
:10163000050002A94855681CC5B2102DF7DB03AAA6
:10164000042102A8FFF7F2F90020079007A802ABD7
:10165000062202A900900C20FFF74FF90446022C45
:1016600000D00024B4B9B0208DF808008DF80960CE
:101670000DF10A02022102A8FFF7D8F907A802AB70
:10168000042202A900900C20FFF737F9044614B990
:10169000079849E051E04FE0000C0140000801408C
:1016A00055494420646F6E2774206D617463680D22
:1016B0000A0000004B455920646F6E2774206D614D
:1016C0007463680D0A000000646174613A000000F0
:1016D000506364577269746528292066696E69735E
:1016E0006865640D0A000000506364577269746590
:1016F0002829206661696C65640D0A00506364489E
:10170000616C7428292066696E69736865640D0AC6
:101710000000000050636448616C742829206661F1
:10172000696C65640D0A0000042805D19DF8080065
:1017300000F00F000A2800D00224204608B0BDE8BF
:10174000F081000010B54FF40061F94800F0AFFDE2
:101750004FF48051F64800F0AAFD4FF48051F44850
:1017600000F0A7FD4FF40061F14800F0A2FD10BDAC
:1017700010B54FF40061EE4800F099FD4FF4805130
:10178000EB4800F096FD4FF48051E94800F08FFDE2
:1017900010BD10B54FF40061E54800F088FD4FF42E
:1017A0000061E34800F085FD10BD2DE9F0410546DC
:1017B0002C464FF40061DE4800F07BFD00261CE063
:1017C000274607F08007802F04D17901D84800F020
:1017D0006EFD04E04FF48051D54800F06AFD6006CC
:1017E000040E4FF40061D24800F061FD4FF4006137
:1017F000CF4800F05EFD701CC6B2082EE0DBBDE8ED
:10180000F08110B50446FFF79DFF7820FFF7CDFF6C
:10181000FFF7BFFF0020FFF7C8FFFFF7BAFF204622
:10182000FFF7C3FFFFF7B5FFFFF7A2FF10BD10B52D
:101830000446FFF787FF7820FFF7B7FFFFF7A9FF00
:101840004020FFF7B2FFFFF7A4FF2046FFF7ADFFF0
:10185000FFF79FFFFFF78CFF10BD70B504460D46E4
:101860001DB1E0B2FFF7E3FF02E0E0B2FFF7C9FF0E
:1018700070BD70B50646002418E004F1B0000021E8
:10188000FFF7EBFF00210846FFF7E7FF00211020DC
:10189000FFF7E3FF002505E001213046FFF7DDFFFC
:1018A000681CC5B2802DF7DB601CC4B2082CE4DBD9
:1018B00070BD06E041F6650100E0491E0029FCD13B
:1018C000401E0028F6D17047014605E0002001E0E7
:1018D000421CD0B27B28FBDB0A00A1F10101F5D14B
:1018E000704770B504460D4605F1B0000021FFF7C2
:1018F000B4FF102141EA14100021FFF7AEFF04F0FD
:101900000F000021FFF7A9FF70BD10B500218D2049
:10191000FFF7A3FF00211420FFF79FFF0021AF2056
:10192000FFF79BFF10BD10B500218D20FFF795FF3D
:1019300000211020FFF791FF0021AE20FFF78DFF5F
:1019400010BD70B5002418E004F1B0000021FFF7CD
:1019500084FF00210846FFF780FF00211020FFF7D9
:101960007CFF002505E001210020FFF776FF681CC1
:10197000C5B2802DF7DB601CC4B2082CE4DB70BD5F
:1019800070B5002418E004F1B0000021FFF765FFF6
:1019900000210846FFF761FF00211020FFF75DFFDF
:1019A000002505E001210846FFF757FF681CC5B276
:1019B000802DF7DB601CC4B2082CE4DB70BD2DE980
:1019C000F04707460E469046994600250024A8F1A8
:1019D0002000C5B27F2F02DD0027B01CC6B2B9F1CE
:1019E000100F24D131463846FFF77BFF002408E072
:1019F00004EB05114F4A505C0121FFF72EFF601CDC
:101A0000C4B2082CF4DB701CC1B23846FFF769FF82
:101A1000002409E004EB05110831464A505C01211D
:101A2000FFF71BFF601CC4B2082CF3DB12E0314649
:101A30003846FFF756FF00240AE005EB45013E4A11
:101A400002EB4101085D0121FFF707FF601CC4B2F2
:101A5000062CF2DBBDE8F08710B50246012000E05D
:101A600050430B00A1F10104E1B2F9D110BD2DE901
:101A7000FF5F074691461E460E9D4FF0000A002468
:101A800035E0301B401EC1B20A20FFF7E5FFB9FB6D
:101A9000F0F00A21B0FBF1F201FB1208BAF1000FDD
:101AA00014D1701EA04211DDB8F1000F0CD1AB466D
:101AB00005EBDB71491001FB0471C8B22B462022F3
:101AC0000199FFF77CFF10E04FF0010AAB4605EBF0
:101AD000DB71491001FB0471C8B208F13001CAB2D0
:101AE0002B460199FFF76BFF00BF601CC4B2B442E4
:101AF000C7DBBDE8FF9F2DE9F04104460F461546C0
:101B0000984600260FE0AA5D434639462046FFF777
:101B100056FF04F10800C4B2782C02DD0024B81C82
:101B2000C7B2701CC6B2A85D0028ECD1BDE8F08138
:101B300000080140763400084E3200082DE9F041DB
:101B400080460E461546002731464046FFF7C9FE3F
:101B500000240AE07F4A02EB8511085D0121FFF7AE
:101B60007CFE781CC7B2601CC4B2102CF2DB701C67
:101B7000C1B24046FFF7B5FE00240CE06900491CE5
:101B8000744A02EB4111085D0121FFF766FE781CE3
:101B9000C7B2601CC4B2102CF0DBBDE8F0812DE9A7
:101BA000F05F06460F4690461C46DDF828A04FF031
:101BB000000BE11704EB5171C910A4EBC10131B95D
:101BC0002046E11704EB5171C1F3C70506E020463A
:101BD000E11704EB5171C910491CCDB23D4615E027
:101BE00029463046FFF77DFEB1460BE059460BF122
:101BF000010B1AF801000121FFF72FFE09F1010086
:101C000000F0FF09C145F1DB681CC5B2A542E7DB66
:101C1000BDE8F09F08B50121042000F057FD4FF406
:101C2000C050ADF8000010208DF8030003208DF89F
:101C300002006946484800F08DFA4FF4C05146480A
:101C400000F035FB0320ADF800006946434800F082
:101C500081FA0321414800F02AFB4FF40040ADF81F
:101C6000000069463E4800F075FA4FF400413C48D8
:101C700000F01DFBC82000F0B2F80021AE20FFF7F5
:101C8000ECFD00210846FFF7E8FD00211020FFF7DA
:101C9000E4FD00214020FFF7E0FD0021B020FFF728
:101CA000DCFD00218120FFF7D8FD0021FF20FFF798
:101CB000D4FD0021A120FFF7D0FD0021A620FFF7D1
:101CC000CCFD0021A820FFF7C8FD00213F20FFF731
:101CD000C4FD0021C820FFF7C0FD0021D320FFF77D
:101CE000BCFD00210846FFF7B8FD0021D520FFF715
:101CF000B4FD00218020FFF7B0FD0021D820FFF7C0
:101D0000ACFD00210520FFF7A8FD0021D920FFF739
:101D1000A4FD0021F120FFF7A0FD0021DA20FFF74C
:101D20009CFD00211220FFF798FD0021DB20FFF72A
:101D300094FD00213020FFF790FD00218D20FFF75A
:101D40008CFD00211420FFF788FD0021AF20FFF754
:101D500084FD08BD71000020000801400010014012
:101D60000020014010B56FF0040000F074F92E4817
:101D700000682E49B0FBF1F02D4908700846007844
:101D800000EB4001C1EBC0104FF6FF7101EAC0004B
:101D90002849088010BD0146254A12784A434FF071
:101DA000E0235A6100229A611A46126942F0010248
:101DB0001A6100BF4FF0E022106900F001021AB171
:101DC00000F48032002AF5D04FF0E022126922F0B0
:101DD00001024FF0E0231A6100229A617047014628
:101DE000144A12884A434FF0E0235A6100229A6154
:101DF0001A46126942F001021A6100BF4FF0E02258
:101E0000106900F001021AB100F48032002AF5D006
:101E10004FF0E022126922F001024FF0E0231A6134
:101E200000229A61704700001800002000127A001A
:101E30007405002076050020014600BF704700BFF2
:101E4000494A128802F04002002AF9D0C2B2464B39
:101E50001B1D1A80704710B586B00446012144F25C
:101E6000040000F033FC4FF40070ADF814000320C0
:101E70008DF8160018208DF8170005A93B4800F0D2
:101E800069F94FF48060ADF8140004208DF8170054
:101E900005A9364800F05EF925208DF800000320E2
:101EA0008DF801008DF8020001208DF803006846CE
:101EB00000F087F801940020ADF80800ADF80A00A2
:101EC000ADF80C00ADF810000C20ADF80E0001A923
:101ED000254800F0A2FC012240F22551224800F0E2
:101EE00034FD0121204800F024FD06B010BD10B5DE
:101EF00040F225511C4800F00DFE10B31A4800F0C6
:101F000089FDC4B21A48008800F40040C8B91848D6
:101F1000008800F4804060B10A2C03D000201449EE
:101F2000088020E01248008840F4004010490880F2
:101F300019E00D2C06D10E48008840F480400C4971
:101F4000088010E00A480088C0F30D0009490C54CD
:101F500007480088401C0649088008460088C728B2
:101F600001DD0020088010BD00380140000801405C
:101F70007C050020310900200948804709480047B6
:101F8000FEE7FEE7FEE7FEE7FEE7FEE7FEE7FEE729
:101F9000FEE7FEE704480549054A064B7047000086
:101FA000EB050008ED000008600A0020601000202A
:101FB000600C0020600C002031490143314A11605F
:101FC000704770B5002100230F22C47804B32D4C54
:101FD000246804F4E064C4F5E064210AC1F1040358
:101FE000CA40447804FA03F184781440214309017B
:101FF000254C0678A155047804F01F050124AC4057
:1020000005786D11AD0005F1E025C5F8004109E046
:10201000047804F01F050124AC401C4D06787611AD
:1020200045F8264070BD1A4A0A400243154B1B1F53
:102030001A60704739B1134A121D12680243114BDE
:102040001B1D1A6006E00F4A121D126882430D4BD9
:102050001B1D1A607047042808D14FF0E021096960
:1020600041F004014FF0E022116107E04FF0E02160
:10207000096921F004014FF0E0221161704700006E
:102080000000FA050CED00E000E400E080E100E073
:1020900080FFFF1F10B50446CC48844208D10121BF
:1020A000042000F02DFB0021042000F029FB46E075
:1020B000C748844208D10121082000F021FB0021FB
:1020C000082000F01DFB3AE0C248844208D10121FB
:1020D000102000F015FB0021102000F011FB2EE075
:1020E000BD48844208D10121202000F009FB0021D5
:1020F000202000F005FB22E0B848844208D10121ED
:10210000402000F0FDFA0021402000F0F9FA16E02E
:10211000B348844208D10121802000F0F1FA002167
:10212000802000F0EDFA0AE0AE48844207D1012198
:10213000801500F0E5FA0021A01500F0E1FA10BDCD
:1021400010B50121084600F0DBFA0021012000F063
:10215000D7FA10BD2DE9F0410246002500260020E7
:1021600000230024002791F803C00CF00F0591F81C
:1021700003C00CF0100CBCF1000F03D091F802C0AA
:102180004CEA050591F800C0BCF1000F31D014688D
:1021900000202BE04FF0010C0CFA00F3B1F800C066
:1021A0000CEA03069E4220D183004FF00F0C0CFA7C
:1021B00003F7BC4305FA03FC4CEA040491F803C09E
:1021C000BCF1280F06D14FF0010C0CFA00FCC2F84C
:1021D00014C00AE091F803C0BCF1480F05D14FF0DC
:1021E000010C0CFA00FCC2F810C0401C0828D1D326
:1021F0001460B1F800C0BCF1FF0F34DD546800205A
:102200002EE000F1080C4FF0010808FA0CF3B1F8C9
:1022100000C00CEA03069E4221D183004FF00F0C50
:102220000CFA03F7BC4305FA03FC4CEA040491F8EA
:1022300003C0BCF1280F05D100F1080C08FA0CF816
:10224000C2F8148091F803C0BCF1480F07D100F127
:10225000080C4FF0010808FA0CF8C2F81080401C76
:102260000828CED35460BDE8F0814FF6FF7101809D
:10227000022181700421C1707047024600209368DA
:102280000B400BB1012000E0002070470146886838
:1022900080B2704702460020D3680B400BB101208A
:1022A00000E0002070470146C86880B270470161B5
:1022B0007047416170470AB1016100E041617047B8
:1022C000C16070474FF480320A438261816182614C
:1022D00082698269704702460020434B18684FF6B6
:1022E0008073184040EA021008433F4B1860704763
:1022F0003E49C8617047F0B50A460023002400211A
:10230000002500F00046B6F1004F02D1364EF169CB
:1023100001E0354E7168C0F3034583B200F4401606
:10232000B6F5401F08D121F070612F4E766826F077
:1023300070662D4F7E6012E000F48016B6F5801FA7
:1023400006D1032606FA05F4A14341F0706106E0C8
:10235000460D360103FA06F6B14341F0706122B131
:10236000460D360103FA06F6314300F00046B6F199
:10237000004F02D11C4EF16101E01B4E7160F0BDB7
:1023800030B500228B071C0F0F2303FA04F2164B03
:1023900008338C1053F824309343134C08348D10B9
:1023A00044F8253023468C1053F824308C07240F32
:1023B00000FA04F423430C4C08348D1044F8253003
:1023C00030BD0A49DC310860704700000008014058
:1023D000000C0140001001400014014000180140B1
:1023E000001C01400020014000000140000020428C
:1023F000DF48006840F00100DD4908600846406899
:10240000DC490840DA49486008460068DA49084073
:10241000D74908600846006820F480200860084614
:10242000406820F4FE0048604FF41F008860704749
:10243000CF49096821F48031CD4A116011460968FD
:1024400021F480211160B0F5803F03D0B0F5802FDA
:102450000ED106E0C649096841F48031C44A1160D2
:1024600007E0C349096841F4A021C14A116000E0B6
:1024700000BF00BF704710B50146002200230020B6
:102480004A11012A02D1BA4C236806E0022A02D17D
:10249000B74C236A01E0B64C636A01F01F020124C5
:1024A00094401C400CB1012000E0002010BD38B564
:1024B000002000900024002500BF3120FFF7DBFF43
:1024C00005460098401C00900098B0F5A06F01D020
:1024D000002DF2D03120FFF7CEFF08B1012400E03B
:1024E0000024204638BD01460020A14A106820F093
:1024F000F80040EAC10010607047A04908607047CA
:10250000024600209A4B586820F47C1042EA0103EE
:102510001843974B586070479849086670470146C2
:102520000020934A506820F0030008435060704731
:102530008F48406800F00C007047014600208C4A2C
:10254000506820F0F00008435060704701460020BA
:10255000874A506820F4E0600843506070470146A5
:102560000020834A506820F4605040EAC100506067
:10257000704729B17E4A527A02437D4B5A7204E079
:102580007B4A527A82437A4B5A7270477B49D831E0
:102590000860704701460020754A506820F44040AA
:1025A0000843506070470021714A20321170704A10
:1025B00082F82010012802D004280AD104E0012169
:1025C0006B4A2032117005E00521694A20321170F2
:1025D00000E000BF00BF7047694908607047644968
:1025E000096A0143624A11627047654944390860CB
:1025F000704730B500210022002400235C4D6D6837
:1026000005F00C0121B1042905D0082923D105E0EA
:102610005C4D056022E05B4D05601FE0544D6D6828
:1026200005F47012524D6D6805F48034022505EBF7
:1026300092421CB9544D554305600BE04C4D6D68FA
:1026400005F400351DB1504D5543056002E04D4D78
:102650005543056002E04B4D056000BF00BF444D8F
:102660006D6805F0F0010909484D6B5C0568DD40B7
:1026700045603F4D6D6805F4E061090A434D6B5CB0
:102680004568DD4085603A4D6D6805F46051C90AC2
:102690003E4D6B5C4568DD40C560354D6D6805F4A9
:1026A0004041890B3A4D6B5CC568B5FBF3F505619C
:1026B00030BD29B12E4A526902432D4B5A6104E0C4
:1026C0002B4A526982432A4B5A61704729B1284AE2
:1026D00092690243264B9A6104E0254A926982433B
:1026E000234B9A61704729B1214AD2690243204B9A
:1026F000DA6104E01E4AD26982431D4BDA617047F9
:1027000029B11B4AD2680243194BDA6004E0184A27
:10271000D2688243164BDA60704729B1144A1269B5
:102720000243134B1A6104E0114A12698243104BB1
:102730001A61704712494039086070470F49C864F0
:1027400070470B49C87170470948406A40F0807073
:1027500007494862704701460020054A92680A40CE
:102760000AB1012000E000207047014988727047DB
:10277000001002400000FFF8FFFFF6FE000042429A
:102780008004424200127A0000093D007E050020CC
:102790008E05002010B50446FB48844209D1012172
:1027A0008803FFF7ADFF00214FF48040FFF7A8FF3B
:1027B00032E0F648844209D101214804FFF7ADFF19
:1027C00000214FF40030FFF7A8FF25E0F0488442D5
:1027D00009D101218804FFF7A0FF00214FF48020D8
:1027E000FFF79BFF18E0EB48844209D10121C804A0
:1027F000FFF793FF00214FF40020FFF78EFF0BE05F
:10280000E548844208D101210805FFF786FF002131
:102810004FF48010FFF781FF10BD2DE9F04786B01F
:1028200005460E460024A24600BFA1460027B089F7
:1028300000B100BF2F462C8A4CF6FF700440F08890
:1028400004432C82AC894EF6F3100440B0883189E1
:102850000843718908430443AC81AC8A4FF6FF40BA
:102860000440B0890443AC8201A8FFF7C2FEC64809
:10287000874202D1DDF810A001E0DDF80CA0A889A4
:1028800000F4004040B10AEBCA0000EB0A103168C6
:102890004900B0FBF1F807E00AEBCA0000EB0A10B0
:1028A00031688900B0FBF1F86420B8FBF0F0040156
:1028B0002009642101FB1089A88900F4004040B17F
:1028C000322000EBC900B0FBF1F000F00700044338
:1028D00008E0322000EB09106421B0FBF1F000F0B9
:1028E0000F0004432C8106B0BDE8F0874FF4165169
:1028F000016000218180C18001810C214181002182
:102900008181704710B502460020108A4FF2FF0304
:1029100018400B884C8823438C882343CC8823435E
:102920001843108210BD0021018041808180C18048
:10293000704721B1828942F40052828104E0828989
:102940004DF6FF731A4082817047F0B503460024AC
:1029500000260025002040F66A17B94200D100BFCA
:102960001846C1F3421401F01F06012707FA06F5C5
:10297000012C01D10C3004E0022C01D1103000E018
:1029800014301AB107682F43076002E00768AF43AD
:102990000760F0BD1AB1838A0B43838202E0838A09
:1029A0008B4383827047028A4FF6F0731A4002828B
:1029B000028A0A430282704782894FF2FF731A40EB
:1029C000828182890A438281704721B1828942F0E3
:1029D0000202828104E082894FF6FD731A408281EF
:1029E0007047028A4FF6DF731A400282028A0A4356
:1029F0000282704721B1028A42F48042028204E0DE
:102A0000028A4BF6FF731A4002827047C1F3080234
:102A10008280704701468888C0F30800704781892A
:102A200041F0010181817047028BD2B20283028B97
:102A300042EA012202837047028B02F47F42028342
:102A4000028B0A430283704721B1828A42F020023E
:102A5000828204E0828A4FF6DF731A4082827047D6
:102A600021B1828A42F01002828204E0828A4FF60B
:102A7000EF731A408282704721B1828A42F00802C5
:102A8000828204E0828A4FF6F7731A40828270478E
:102A900021B1828942F40042828103E08289C2F33B
:102AA0000E028281704721B1828A42F400628282E2
:102AB00004E0828A4FF2FF731A4082827047828A52
:102AC0004FF6FB731A408282828A0A4382827047E1
:102AD00021B1828A42F00202828204E0828A4FF6A9
:102AE000FD731A408282704702460020B1F5007FD4
:102AF00000D100BF13880B400BB1012000E0002083
:102B0000704701F40072B2F5007F00D100BFCA43E4
:102B10000280704770B50246002400230025002083
:102B200040F66A16B14200D100BFC1F3421501F070
:102B30001F03012606FA03F3012D02D196893340C3
:102B400006E0022D02D1168A334001E0968A334016
:102B50000C12012606FA04F41688344013B10CB1A5
:102B6000012000E0002070BD10B50022002340F6D7
:102B70006A14A14200D100BF0A1201249440A3B2FA
:102B8000DC43048010BD00000038014000440040D8
:102B900000480040004C00400050004000204449E4
:102BA0000860091D0860091D0860091D086041488A
:102BB0003F4914310860704700213D498279002A5D
:102BC0003AD00A46126803689A430B461A600A1DF7
:102BD000126803689A430B1D1A60027911440A684F
:102BE00003681A430A60324A0832126803689A433B
:102BF0002F4B08331A601A1D126803689A432C4B36
:102C00000C331A604279102A0ED11A1F1268036819
:102C10001A43274B08331A601A1D126803681A43B7
:102C2000234B0C331A600DE02149427911440A68A4
:102C300003681A430A6005E0027911440A680368D0
:102C40009A430A6070470021016001710C214171B3
:102C50000021817170471649103109680143144AF7
:102C600010321160704701460020114A1432126878
:102C70000A400AB1012000E0002070470C491431DD
:102C800008607047014600200022094B1B6803EAD8
:102C90000102074B14331B680B4013B10AB101202A
:102CA00000E00020704702491431086070470000BE
:102CB00000040140FFFF0F00704700000FB40449FB
:102CC00010B503AA029800F043FA10BC5DF814FB9B
:102CD000780500200FB41CB5074B06AA7B44694653
:102CE0000090059800F005FA0020694600F014FAFB
:102CF0001CBC5DF814FB00003904000070B50446EC
:102D000085690068C10601D5302600E02026C0078D
:102D100007D070BDD4E9012130469047206A401C9D
:102D200020626D1EF6D570BD70B5044685690078C9
:102D3000C00707D170BDD4E9012120209047206A47
:102D4000401C20626D1EF6D570BD70B50C46054660
:102D5000012A05D02878800600D5EA69002302E020
:102D6000012305E05B1C934202D2E05C0028F9D10C
:102D7000A869E618C01AA861286A1844286228467B
:102D8000FFF7BCFF04E0D5E9012114F8010B9047DF
:102D9000B442F8D32846FFF7C7FF70BD2DE9F041D4
:102DA0000646002410687529314616A510D0AFF3E9
:102DB0000080002802DA404213A507E031688A0744
:102DC00001D512A502E0490704D511A5012401E0AF
:102DD000AFF3008000210A2206F1240709E0B0FBCE
:102DE000F2FCB0FBF2F302FB1C00303078541846C2
:102DF000491C0028F3D123462A463046BDE8F0415D
:102E000000F019B9000000002D0000002B000000A8
:102E10002000000070B504460D4621461068AFF34F
:102E200000802188090502D50F4A7A4402E00E4A43
:102E30007A440E32002104F1240305E000F00F066D
:102E40000009965D5E54491C0028F7D120780023C4
:102E5000000704D5702D02D009B10223113220469B
:102E6000BDE8704000F0E7B8380C00002DE9F05FD5
:102E7000894604464FF0000ADFF824B1FB44C0F84D
:102E800020A02046E168884700287DD0252806D06C
:102E9000D4E901219047206A401C2062F1E7002517
:102EA0005F462046E16888472028064607DB312E2A
:102EB00005D2B81910F8200C08B10543F1E7A807AE
:102EC00001D525F00405C4F81CA00027C4F818A0FB
:102ED0002A2E09D0304600F0B3F938B304EB870846
:102EE000303EC8F8186019E059F8041B204604EB7E
:102EF00087029161E1688847012F064618D1E06991
:102F0000002820DA25F020051DE0D8F8180000EB95
:102F1000800006EB40003038C8F818002046E16811
:102F20008847064600F08CF90028EED1012F0AD020
:102F30002E2E08D12046E16888477F1C0646022FC6
:102F400045F02005C4DBA069002803DA404245F0C3
:102F50000105A061E80701D025F01005A6B1A6F192
:102F60004100192802D8203645F400654A4631460A
:102F7000204625604D46FDF713F960B1012807D0C2
:102F8000ED1D25F0070000E007E000F1080978E7F3
:102F900005F1040975E730467AE7206ABDE8F09F3D
:102FA0000E0C0000032A40F2308010F0030C00F0F9
:102FB000158011F8013BBCF1020F624498BF11F873
:102FC00001CB00F8013B38BF11F8013BA2F104022C
:102FD00098BF00F801CB38BF00F8013B11F00303A4
:102FE00000F0C880083AC0F0088051F8043B083A65
:102FF00051F804CBA0E80810F5E7121D5CBF51F8AA
:10300000043B40F8043BAFF30080D20724BF11F823
:10301000013B11F801CB48BF11F8012B24BF00F888
:10302000013B00F801CB48BF00F8012B7047704707
:103030007047704770472DE9F0470D469946924614
:10304000044600F124080168880604D5E06921F0EF
:103050001001216000E00120A84201DD471B00E0D3
:103060000027A1697A1902EB0900081AA0612078EB
:10307000C00602D42046FFF741FE002608E0D4E94E
:1030800001211AF806009047206A401C761C206235
:103090004E45F4DB2078C0060AD52046FFF72EFE09
:1030A00006E0D4E9012130209047206A401C2062CC
:1030B000381EA7F10107F4DC07E0D4E9012118F874
:1030C00005009047206A401C2062281EA5F10105DA
:1030D000F3DC2046FFF728FE2078000602D5022008
:1030E000BDE8F0870120FBE701694A1C026108780E
:1030F000704700B58FB0CDE9013100210591054938
:103100007944CDE9031011466846FFF7AFFE0FB0D2
:1031100000BD0000E5FFFFFF0A6802F8010B0A602E
:10312000704710B5436913B1AFF3008001E0FFF7BA
:103130000CFE012010BD127800F124010A7000225B
:103140004A700122EDE711684FF0FF32E9E7000015
:10315000074B70B50D467B44FFF7CBFF044628466E
:1031600000F03AF810B14FF0FF3070BD204670BD4E
:10317000E5ECFFFF10B5203AC0F00B80B1E8185025
:10318000203AA0E81850B1E81850A0E81850BFF451
:10319000F5AF5FEA027C24BFB1E81850A0E81850F0
:1031A00044BF18C918C0BDE810405FEA827C24BF44
:1031B00051F8043B40F8043B08BF7047D20728BFD2
:1031C00031F8023B48BF11F8012B28BF20F8023B21
:1031D00048BF00F8012B7047007B00F0800070476B
:1031E000754600F029F8AE4605006946534620F0C2
:1031F0000700854618B020B5FEF7CCFEBDE820409C
:103200004FF000064FF000074FF000084FF0000BA2
:1032100021F00701AC46ACE8C009ACE8C009ACE855
:10322000C009ACE8C0098D4670470446AFF3008082
:103230002046FCF7CDFF000000487047FC09002045
:1032400030380A2801D20120704700207047000062
:10325000000000000000002F000000000700070031
:1032600000147F147F1400242A7F2A12006264084D
:1032700013230036495522500000050300000000CA
:103280001C224100000041221C000014083E0814CA
:103290000008083E0808000000A0600000080808B8
:1032A0000808000060600000002010080402003ED2
:1032B0005149453E0000427F40000042615149466D
:1032C000002141454B31001814127F10002745455D
:1032D0004539003C4A49493000017109050300366F
:1032E0004949493600064949291E00003636000082
:1032F0000000563600000008142241000014141487
:103300001414000041221408000201510906003281
:103310004959513E007C1211127C007F49494936BF
:10332000003E41414122007F4141221C007F49492A
:103330004941007F09090901003E4149497A007F5E
:103340000808087F0000417F4100002040413F0104
:10335000007F08142241007F40404040007F020C63
:10336000027F007F0408107F003E4141413E007F04
:1033700009090906003E4151215E007F09192946CD
:103380000046494949310001017F0101003F4040A9
:10339000403F001F2040201F003F4038403F006357
:1033A0001408146300070870080700615149454379
:1033B00000007F41410000552A552A550000414137
:1033C0007F00000402010204004040404040000031
:1033D00001020400002054545478007F48444438CB
:1033E00000384444442000384444487F0038545452
:1033F000541800087E0901020018A4A4A47C007FD0
:10340000080404780000447D4000004080847D0072
:10341000007F102844000000417F4000007C041819
:103420000478007C0804047800384444443800FCE4
:10343000242424180018242418FC007C0804040800
:1034400000485454542000043F444020003C404075
:10345000207C001C2040201C003C4030403C0044AC
:1034600028102844001CA0A0A07C004464544C44B4
:1034700014141414141400000000000000000000D4
:10348000000000000000000000F800000000000044
:1034900000333000000000100C06100C0600000085
:1034A00000000000000040C07840C0784000043FA9
:1034B00004043F040400007088FC08300000001879
:1034C00020FF211E0000F008F000E018000000219D
:1034D0001C031E211E0000F00888700000001E2141
:1034E00023241927211010160E00000000000000F0
:1034F000000000000000000000E0180402000000CE
:1035000000071820400000020418E00000000040FE
:10351000201807000000404080F080404000020278
:10352000010F01020200000000F000000000010194
:10353000011F01010100000000000000000080B038
:10354000700000000000000000000000000000010A
:103550000101010101010000000000000000003035
:1035600030000000000000000000806018040060CF
:1035700018060100000000E010080810E000000F2D
:10358000102020100F00001010F800000000002094
:10359000203F2020000000700808088870000030DC
:1035A0002824222130000030088888483000001884
:1035B000202020110E000000C02010F8000000079D
:1035C0000424243F240000F8088888080800001913
:1035D000212020110E0000E0108888180000000F44
:1035E000112020110E0000380808C838080000001B
:1035F000003F000000000070880808887000001C70
:10360000222121221C0000E010080810E000000028
:10361000312222110F00000000C0C0000000000095
:1036200000303000000000000080000000000000BA
:1036300080600000000000008040201008000001B1
:103640000204081020004040404040404000040474
:10365000040404040400000810204080000000203E
:10366000100804020100007048080808F00000007B
:10367000003036010000C030C828E810E00007180C
:10368000272423140B000000C038E0000000203C79
:1036900023020227382008F8888888700000203F1D
:1036A000202020110E00C030080808083800071834
:1036B00020202010080008F808080810E000203F2B
:1036C000202020100F0008F88888E8081000203F0C
:1036D00020202320180008F88888E8081000203FE0
:1036E000200003000000C030080808380000071858
:1036F0002020221E020008F808000008F808203FD9
:10370000210101213F20000808F8080800000020DE
:10371000203F2020000000000808F8080800C080B2
:1037200080807F00000008F888C028180800203F2B
:1037300020012638200008F8080000000000203F83
:1037400020202020300008F8F800F8F80800203F7A
:10375000003F003F200008F830C00008F808203F74
:10376000200007183F00E01008080810E0000F10C4
:10377000202020100F0008F808080808F000203F5B
:10378000210101010000E01008080810E0000F18F6
:10379000242438504F0008F8888888887000203F1B
:1037A0002000030C3020007088080808380000381A
:1037B000202121221C00180808F808081800000021
:1037C000203F2000000008F808000008F808001F4B
:1037D000202020201F000878880000C8380800003A
:1037E00007380E010000F80800F80008F800033C54
:1037F0000700073C0300081868808068180820301C
:103800002C03032C30200838C800C83808000000FA
:10381000203F2000000010080808C83808002038A1
:10382000262120201800000000FE020202000000F5
:10383000007F40404000000C30C00000000000004D
:1038400000010638C00000020202FE000000004035
:1038500040407F000000000004020202040000005B
:103860000000000000000000000000000000808058
:103870008080808080800002020400000000000040
:10388000000000000000000080808080000000191F
:10389000242222223F2008F8008080000000003F00
:1038A000112020110E000000008080800000000E1A
:1038B000112020201100000000808088F800000EF8
:1038C000112020103F200000808080800000001F19
:1038D000222222221300008080F08888881800208D
:1038E000203F202000000000808080808000006B4E
:1038F00094949493600008F8008080800000203F3A
:10390000210000203F200080989800000000002047
:10391000203F20200000000000809898000000C098
:103920008080807F000008F8000080808000203FB9
:1039300024022D302000000808F8000000000020BC
:10394000203F202000008080808080808000203FF9
:1039500020003F20003F8080008080800000203FCA
:10396000210000203F200000808080800000001F98
:10397000202020201F00808000808000000080FF29
:10398000A12020110E000000008080808000000E29
:10399000112020A0FF808080800080808000202077
:1039A0003F212000010000008080808080000033E3
:1039B000242424241900008080E08080000000007E
:1039C000001F202000008080000000808000001F79
:1039D000202020103F208080800000808080000117
:1039E0000E300806010080800080008080800F304B
:1039F0000C030C300F0000808000808080000020CD
:103A0000312E0E31200080808000008080808081F7
:103A10008E70180601000080808080808000002168
:103A2000302C2221300000000000807C02020000C7
:103A30000000003F404000000000FF0000000000C8
:103A40000000FF0000000002027C80000000004037
:103A5000403F0000000000060101020204040000D3
:103A60000000000000003031323334353637383949
:103A700041424344454640305800303132333435BA
:103A80003637383961626364656640307800040017
:103A9000000800000000000000020001000010000B
:103AA000C03A00080000002094050000280100082A
:103AB000483D000894050020CC0A0000840100085D
:103AC0003AFF01F5A32E3E4E84A24A04C00901022A
:103AD0000304060708092932493CA9014DEF078173
:103AE000690A416908150CF30CF3580D0804070B1B
:103AF0000C0F131780808292010511FE80808000D8
:103B00001016404022241048807F040818242240C8
:103B100040051701E21CE037804020100C030D1314
:103B2000030C30406029013BFF4401091660111964
:103B3000B80D1202040810604DFE8282FE05112AA3
:103B4000F828E960123F200820BF403F40807F2ACC
:103B50004F050110080F11FE225A8620102824E379
:103B600024281020207B000D12040827110D41810C
:103B70007F0105093117101010FF10901C3F4848B5
:103B8000C0031142701E0444827F01462A49010984
:103B9000109F11000F122030AC63100808F8090EB6
:103BA00008F808080010112267221292804021169E
:103BB0000816214080801B8082FB190449060910E9
:103BC00020114D8040300FC90117000C1310111641
:103BD0001010F010101413100010138181414121B6
:103BE000110D030D1121414181811009FE121212A4
:103BF000F212121E0A12F064100B100E013F0101A6
:103C0000FF11211F05110F40807F1720102CE72482
:103C100024000812E22C20BF2028E6080F10010122
:103C2000017F2111804F20100F10204FE01008203D
:103C300010EC27F42CE0071222920ED2221E10085C
:103C400080601F093F89FF0008140A0909FF09095C
:103C5000084BFE92010214FE180940424458407F6E
:103C60004040040D1050484640202B4042013AC2CB
:103C7000060A104020152010080649F90511020413
:103C80000830081011040484C4A49C85868484A48C
:103C9000C4840404C1358040300F06137F808081C6
:103CA000F0080D118060F80704E4A4A4BFA4A4E404
:103CB0003F22011AFFBD2A4A0119C701131BF888C8
:103CC000010809110808FF08090AC8085F121F0047
:103CD0000C1110201F80402116182641F81D0808DD
:103CE00008F8040F111010FF101010A0080F111089
:103CF00030101F088848300E014080403F20293A8C
:103D000012902BFC04010212FC1D0444827FC42B80
:103D10007F20010A117F203AA4FB0009110420181A
:103D20000FC8082818001022221A42827E020AB206
:103D300040300C031C60802D01020304042009069E
:083D400007080902040608004F
:04000005080000ED02
:00000001FF
